:100000000C9458000C9480000C9480000C94800098
:100010000C9480000C9480000C9480000C94800060
:100020000C9480000C9480000C9480000C94800050
:100030000C9480000C9480000C9480000C94800040
:100040000C9431030C9480000C94A1030C947B035A
:100050000C9480000C9480000C9480000C94800020
:100060000C94D3030C9480000000000025002800AD
:100070002B00040404040404040402020202020229
:10008000030303030303010204081020408001025C
:1000900004081020010204081020000000080002DB
:1000A0000100000304070000000000000000F2044B
:1000B00011241FBECFEFD8E0DEBFCDBF11E0A0E01E
:1000C000B1E0EEECFDE002C005900D92AC33B1075B
:1000D000D9F722E0ACE3B1E001C01D92A83AB20723
:1000E000E1F710E0C8E5D0E004C02197FE010E94CE
:1000F000DF06C735D107C9F70E942B050C94E5062A
:100100000C94000090E0FC01E656FF4F2491FC01A6
:10011000EA57FF4F3491FC01EE58FF4FE491EE2374
:10012000C9F0222339F0233001F1A8F4213019F16C
:10013000223029F1F0E0EE0FFF1FE859FF4FA591A3
:10014000B4918FB7F894EC91611126C030953E239D
:100150003C938FBF08952730A9F02830C9F0243090
:1001600049F7809180008F7D03C0809180008F7758
:1001700080938000DFCF84B58F7784BDDBCF84B5DB
:100180008F7DFBCF8091B0008F778093B000D2CF6E
:100190008091B0008F7DF9CF3E2BDACF3FB7F89436
:1001A0008091FB019091FC01A091FD01B091FE01B5
:1001B00026B5A89B05C02F3F19F00196A11DB11DC2
:1001C0003FBFBA2FA92F982F8827BC01CD01620FFE
:1001D000711D811D911D42E0660F771F881F991FB9
:1001E0004A95D1F7089508950895AF92BF92CF929E
:1001F000DF92EF92FF920F931F93CF93DF936C01E7
:100200007B018B01040F151FEB015E01AE18BF08C7
:10021000C017D10759F06991D601ED91FC91019079
:10022000F081E02DC6010995892B79F7C501DF9191
:10023000CF911F910F91FF90EF90DF90CF90BF90E3
:10024000AF900895FC01538D448D252F30E0842F0D
:1002500090E0821B930B541710F0CF9608950197EE
:100260000895FC01918D828D981761F0A28DAE0FDB
:10027000BF2FB11D5D968C91928D9F5F9F73928F62
:1002800090E008958FEF9FEF0895FC01918D828D8E
:10029000981731F0828DE80FF11D858D90E008955B
:1002A0008FEF9FEF0895FC01918D228D892F90E0B3
:1002B000805C9F4F821B91098F73992708958FEF60
:1002C00091E00E94530121E0892B09F420E0822F64
:1002D000089580E090E0892B29F00E945F01811150
:1002E0000C9400000895FC01A48DA80FB92FB11D36
:1002F000A35ABF4F2C91848D90E001968F7399275C
:10030000848FA689B7892C93A089B1898C91837039
:1003100080648C93938D848D981306C00288F38932
:10032000E02D80818F7D80830895EF92FF920F935F
:100330001F93CF93DF93EC0181E0888F9B8D8C8D91
:1003400098131AC0E889F989808185FF15C09FB785
:10035000F894EE89FF896083E889F9898081837048
:10036000806480839FBF81E090E0DF91CF911F91F7
:100370000F91FF90EF900895F62E0B8D10E00F5F18
:100380001F4F0F731127E02E8C8D8E110CC00FB6EE
:1003900007FCFACFE889F989808185FFF5CFCE0186
:1003A0000E947301F1CFEB8DEC0FFD2FF11DE35A8D
:1003B000FF4FF0829FB7F8940B8FEA89FB89808109
:1003C0008062CFCFCF93DF93EC01888D8823B9F083
:1003D000AA89BB89E889F9898C9185FD03C0808150
:1003E00086FD0DC00FB607FCF7CF8C9185FFF2CFCD
:1003F000808185FFEDCFCE010E947301E9CFDF91AF
:10040000CF91089520917D01260F3327331F21328C
:100410003105ECF42091CC01FC0190E080E0243027
:1004200069F082E00895A0917D012191AC01435AC9
:100430005E4FA40FB52FB11D2C930196861798F32C
:1004400080917D01680F60937D0180E0089581E0D7
:1004500008951092CC0181E08093CB011092A60107
:1004600061E082E10E94820061E083E10E948200FB
:10047000E9EBF0E080818E7F808380818D7F8083B7
:1004800088E48093B80085E48093BC000895CF93FE
:10049000DF9391E090935C018823B9F0C091B8009C
:1004A000D091BA008091BC008A7B8093BC0060E050
:1004B00082E10E94820060E083E10E9482000E944B
:1004C0002902D093BA00C093B800DF91CF9108956C
:1004D0000895E091A5018091A401E81730F4F0E0BF
:1004E000E45CFE4F808190E008958FEF9FEF0895C8
:1004F0009091A5018091A4012FEF3FEF981748F448
:10050000E92FF0E0E45CFE4F208130E09F5F9093A4
:10051000A501C90108958091A4019091A501891BAD
:10052000990B0895CF92DF92EF92FF920F931F9352
:10053000CF93DF937C01CB018A012091D20122234A
:1005400089F0EB016B01C40ED51ECC15DD0569F0F9
:100550006991D701ED91FC910190F081E02DC701E7
:100560000995F3CF642F0E940202C801DF91CF9159
:100570001F910F91FF90EF90DF90CF900895CF9350
:10058000DF931F92CDB7DEB769832091D20122237A
:10059000F9F02091F501203258F021E030E0FC0123
:1005A0003383228390E080E00F90DF91CF91089514
:1005B0008091D301E82FF0E0EC52FE4F99819083B7
:1005C0008F5F8093D3018093F50181E090E0ECCFC1
:1005D00061E0CE0101960E940202F7CF90E080E038
:1005E000089542E050E064E271E08FEF91E00C94F6
:1005F000F50085ED8093BC008091CE019091CF01F4
:10060000A091D001B091D1010796A11DB11D23E0A9
:10061000B695A795979587952A95D1F72091BC0017
:1006200024FD03C01092CC0108954091CE01509159
:10063000CF016091D0017091D101452B462B472B02
:1006400069F30097A105B10541F02AE22A95F1F777
:1006500000C00197A109B109E1CF8091CD010C94AF
:1006600047021F920F920FB60F9211242F933F93C0
:100670008F939F93AF93BF938091F7019091F8016F
:10068000A091F901B091FA013091F60123E0230F16
:100690002D3758F50196A11DB11D2093F6018093C9
:1006A000F7019093F801A093F901B093FA018091BA
:1006B000FB019091FC01A091FD01B091FE0101961A
:1006C000A11DB11D8093FB019093FC01A093FD013E
:1006D000B093FE01BF91AF919F918F913F912F9168
:1006E0000F900FBE0F901F90189526E8230F0296CB
:1006F000A11DB11DD2CF1F920F920FB60F921124E0
:100700002F933F934F935F936F937F938F939F9319
:10071000AF93BF93EF93FF938FEF91E00E9473012C
:10072000FF91EF91BF91AF919F918F917F916F91C9
:100730005F914F913F912F910F900FBE0F901F909F
:1007400018951F920F920FB60F9211242F938F932B
:100750009F93EF93FF93E0910F02F091100280813D
:10076000E0911502F091160282FD1BC090818091EC
:1007700018028F5F8F7320911902821741F0E09168
:100780001802F0E0E150FE4F958F80931802FF9120
:10079000EF919F918F912F910F900FBE0F901F900F
:1007A00018958081F4CF1F920F920FB60F921124EB
:1007B0002F933F934F935F936F937F938F939F9369
:1007C000AF93BF93EF93FF938091B900887F8036FA
:1007D00009F44AC0F0F5883209F4A7C018F5803151
:1007E00009F49BC0B8F4882309F4F9C0883009F4EF
:1007F00094C0FF91EF91BF91AF919F918F917F91A5
:100800006F915F914F913F912F910F900FBE0F907D
:100810001F901895883109F488C0803251F7809371
:10082000CA0114C0803409F49DC040F48033B9F388
:100830008833F9F68093CA0185ECB0C0803509F49D
:1008400085C0883509F496C0883499F60E94F9026B
:10085000D0CF883909F48CC038F5883729F050F4A6
:10086000883611F0803729F683E08093CC0110920E
:100870009F0157C0883809F47BC0803919F080384F
:1008800009F0B7CF80919F01803208F071C0E091EC
:100890009F0181E08E0F80939F018091BB00F0E06B
:1008A000E158FE4F80833DC0803B39F0E0F4803A50
:1008B00009F479C0883A09F09CCF84E08093CC0198
:1008C00010927E0110927D01E091A201F091A301AE
:1008D000099580917D0181110FC081E080937D0198
:1008E00010925D0109C0803C09F4A6CF883C09F450
:1008F000A3CF883B09F07DCFE0917E0181E08E0F90
:1009000080937E01F0E0E35AFE4F80818093BB002C
:1009100090917E0180917D0129C08091A7018093F3
:10092000BB0085EC8093BC0064CF9091C90180919D
:10093000C801981758F5E091C90181E08E0F8093A6
:10094000C901F0E0E855FE4F8081E9CFE091C9018F
:1009500081E08E0F8093C9018091BB00F0E0E855E3
:10096000FE4F80839091C9018091C8019817C8F209
:1009700085E8D8CFE091C90181E08E0F8093C9014D
:100980008091BB00F0E0E855FE4F80838091CB0161
:1009900081115CCF81E08093A60184EA8093BC0042
:1009A0001092CC0126CF85EC8093BC001092CC0134
:1009B00080919F01803230F4E0919F01F0E0E15896
:1009C000FE4F108260919F0170E0E091A001F091D4
:1009D000A1018FE791E0099510929F010ACF109233
:1009E000CA0134CFEFEFF1E01382128288EE93E078
:1009F000A0E0B0E084839583A683B78324E031E050
:100A00003183208325EC30E03587248724EC30E0E7
:100A10003787268720EC30E0318B208B21EC30E0CB
:100A2000338B228B22EC30E0358B248B26EC30E0AC
:100A3000378B268B118E128E138E148EECE9F2E01A
:100A40001382128284839583A683B78386E191E023
:100A5000918380830895789484B5826084BD84B541
:100A6000816084BD85B5826085BD85B5816085BDA9
:100A700080916E00816080936E0010928100809161
:100A800081008260809381008091810081608093E9
:100A90008100809180008160809380008091B1000E
:100AA00084608093B1008091B00081608093B00039
:100AB00080917A00846080937A0080917A008260CD
:100AC00080937A0080917A00816080937A0080918F
:100AD0007A00806880937A001092C1001092A5017C
:100AE0001092A4011092D3011092F5010E942902E4
:100AF00083EF90E09093A3018093A20184EF90E0B4
:100B00009093A1018093A00188E38093B800E091C5
:100B10000F02F091100282E08083E0910B02F091CD
:100B20000C021082E0910D02F0910E028FEC808396
:100B300010921702E0911302F091140286E0808374
:100B4000E0911102F0911202808180618083E09136
:100B50001102F0911202808188608083E09111027D
:100B6000F0911202808180688083E0911102F091FF
:100B7000120280818F7D808347E050E067E271E060
:100B80008FEF91E00E94F5000E94F10211E008E071
:100B900095EE792E25EC622EC0E0D0E032E0532EA7
:100BA00044244A941093D2010093F4011092D3018B
:100BB0001092F50161E08CE992E00E94BF026AE2C6
:100BC0008CE992E00E94BF02F090F50120E22F151F
:100BD00008F48CC00E94CE004B015C018091CC01D6
:100BE00081115FC05092CC011093CB014092CA0199
:100BF0001092C901F092C801A4EDB1E0E8EAF1E079
:100C0000F812B4C01092A7018091A701806180936F
:100C1000A7018091A601813009F0ACC01092A60115
:100C20000E94CE006B017C018091A7018093BB00E4
:100C30008091CE019091CF01A091D001B091D101CE
:100C4000892B8A2B8B2B99F00E94CE008090CE01AD
:100C50009090CF01A090D001B090D1016C197D0986
:100C60008E099F0986169706A806B906D8F18091C5
:100C7000BC0083FDD9CF6092BC000E94CE006B0106
:100C80007C018091CC01823009F477C08091CA0147
:100C90008F3F61F18091CA01803241F18091CA0198
:100CA00025C08091CE019091CF01A091D001B0914B
:100CB000D101892B8A2B8B2B09F490CF0E94CE0077
:100CC0002091CE013091CF014091D0015091D101BE
:100CD000681979098A099B092617370748075907B0
:100CE00008F07CCF8091CD010E9447021092D30181
:100CF0001092F5011092D2014BE050E06FE271E0EA
:100D00008FEF91E00E94F5000E94F1020E94CE0058
:100D10006B017C0184EF882E99249394A12CB12C33
:100D20000E94CE006C197D098E099F09683E7340B0
:100D300081059105A8F381E0881A9108A108B108FE
:100D400028EEC20E23E0D21EE11CF11C8114910496
:100D5000A104B10429F7209709F424CF0E945F0170
:100D6000882309F41FCF0E9400001CCF9D9191930E
:100D70008F5F46CF7092BC0080CF8091CE01909162
:100D8000CF01A091D001B091D101892B8A2B8B2B5F
:100D900009F477CF0E94CE008090CE019090CF01D1
:100DA000A090D001B090D1016C197D098E099F09E6
:100DB00086169706A806B90608F063CF93CFEE0F04
:0E0DC000FF1F0590F491E02D0994F894FFCFE9
:100DCE00000000009501F5002201E20153013101FE
:100DDE00450100000000BF029202EE0268028B0283
:100DEE00780269020D0A00537461727465640053CF
:0C0DFE00656E7420746F204E5854000085
:00000001FF
