:100000000C9458000C9480000C9480000C94800098
:100010000C9480000C9480000C9480000C94800060
:100020000C9480000C9480000C9480000C94800050
:100030000C9480000C9480000C9480000C94800040
:100040000C9429030C9480000C9499030C94730372
:100050000C9480000C9480000C9480000C94800020
:100060000C94CB030C9480000000000025002800B5
:100070002B00040404040404040402020202020229
:10008000030303030303010204081020408001025C
:1000900004081020010204081020000000080002DB
:1000A0000100000304070000000000000000EA0453
:1000B00011241FBECFEFD8E0DEBFCDBF11E0A0E01E
:1000C000B1E0E8EAFDE002C005900D92A433B1076B
:1000D000D9F722E0A4E3B1E001C01D92A03AB20733
:1000E000E1F710E0C8E5D0E004C02197FE010E94CE
:1000F000CC06C735D107C9F70E9423050C94D20658
:100100000C94000090E0FC01E656FF4F2491FC01A6
:10011000EA57FF4F3491FC01EE58FF4FE491EE2374
:10012000C9F0222339F0233001F1A8F4213019F16C
:10013000223029F1F0E0EE0FFF1FE859FF4FA591A3
:10014000B4918FB7F894EC91611126C030953E239D
:100150003C938FBF08952730A9F02830C9F0243090
:1001600049F7809180008F7D03C0809180008F7758
:1001700080938000DFCF84B58F7784BDDBCF84B5DB
:100180008F7DFBCF8091B0008F778093B000D2CF6E
:100190008091B0008F7DF9CF3E2BDACF3FB7F89436
:1001A0008091F3019091F401A091F501B091F601D5
:1001B00026B5A89B05C02F3F19F00196A11DB11DC2
:1001C0003FBFBA2FA92F982F8827BC01CD01620FFE
:1001D000711D811D911D42E0660F771F881F991FB9
:1001E0004A95D1F7089508950895AF92BF92CF929E
:1001F000DF92EF92FF920F931F93CF93DF936C01E7
:100200007B018B01040F151FEB015E01AE18BF08C7
:10021000C017D10759F06991D601ED91FC91019079
:10022000F081E02DC6010995892B79F7C501DF9191
:10023000CF911F910F91FF90EF90DF90CF90BF90E3
:10024000AF900895FC01538D448D252F30E0842F0D
:1002500090E0821B930B541710F0CF9608950197EE
:100260000895FC01918D828D981761F0A28DAE0FDB
:10027000BF2FB11D5D968C91928D9F5F9F73928F62
:1002800090E008958FEF9FEF0895FC01918D828D8E
:10029000981731F0828DE80FF11D858D90E008955B
:1002A0008FEF9FEF0895FC01918D228D892F90E0B3
:1002B000805C9F4F821B91098F739927089587EF68
:1002C00091E00E94530121E0892B09F420E0822F64
:1002D000089580E090E0892B29F00E945F01811150
:1002E0000C9400000895FC01A48DA80FB92FB11D36
:1002F000A35ABF4F2C91848D90E001968F7399275C
:10030000848FA689B7892C93A089B1898C91837039
:1003100080648C93938D848D981306C00288F38932
:10032000E02D80818F7D80830895EF92FF920F935F
:100330001F93CF93DF93EC0181E0888F9B8D8C8D91
:1003400098131AC0E889F989808185FF15C09FB785
:10035000F894EE89FF896083E889F9898081837048
:10036000806480839FBF81E090E0DF91CF911F91F7
:100370000F91FF90EF900895F62E0B8D10E00F5F18
:100380001F4F0F731127E02E8C8D8E110CC00FB6EE
:1003900007FCFACFE889F989808185FFF5CFCE0186
:1003A0000E947301F1CFEB8DEC0FFD2FF11DE35A8D
:1003B000FF4FF0829FB7F8940B8FEA89FB89808109
:1003C0008062CFCFCF93DF93EC01888D8823B9F083
:1003D000AA89BB89E889F9898C9185FD03C0808150
:1003E00086FD0DC00FB607FCF7CF8C9185FFF2CFCD
:1003F000808185FFEDCFCE010E947301E9CFDF91AF
:10040000CF91089520917501260F3327331F213294
:100410003105ECF42091C401FC0190E080E024302F
:1004200069F082E00895A09175012191AC014B5AC9
:100430005E4FA40FB52FB11D2C930196861798F32C
:1004400080917501680F6093750180E0089581E0E7
:1004500008951092C40181E08093C30110929E011F
:1004600061E082E10E94820061E083E10E948200FB
:10047000E9EBF0E080818E7F808380818D7F8083B7
:1004800088E48093B80085E48093BC000895CF93FE
:10049000DF9391E0909354018823B9F0C091B800A4
:1004A000D091BA008091BC008A7B8093BC0060E050
:1004B00082E10E94820060E083E10E9482000E944B
:1004C0002902D093BA00C093B800DF91CF9108956C
:1004D0000895E0919D0180919C01E81730F4F0E0CF
:1004E000EC5CFE4F808190E008958FEF9FEF0895C0
:1004F00090919D0180919C012FEF3FEF981748F458
:10050000E92FF0E0EC5CFE4F208130E09F5F90939C
:100510009D01C901089580919C0190919D01891BC5
:10052000990B0895CF92DF92EF92FF920F931F9352
:10053000CF93DF937C01CB018A012091CA01222352
:1005400089F0EB016B01C40ED51ECC15DD0569F0F9
:100550006991D701ED91FC910190F081E02DC701E7
:100560000995F3CF642F0E940202C801DF91CF9159
:100570001F910F91FF90EF90DF90CF900895CF9350
:10058000DF931F92CDB7DEB769832091CA01222382
:10059000F9F02091ED01203258F021E030E0FC012B
:1005A0003383228390E080E00F90DF91CF91089514
:1005B0008091CB01E82FF0E0E453FE4F99819083C6
:1005C0008F5F8093CB018093ED0181E090E0ECCFD1
:1005D00061E0CE0101960E940202F7CF90E080E038
:1005E000089585ED8093BC008091C6019091C7016C
:1005F000A091C801B091C9010796A11DB11D23E0CA
:10060000B695A795979587952A95D1F72091BC0027
:1006100024FD03C01092C40108954091C601509179
:10062000C7016091C8017091C901452B462B472B2A
:1006300069F30097A105B10541F02AE22A95F1F787
:1006400000C00197A109B109E1CF8091C5010C94C7
:1006500047021F920F920FB60F9211242F933F93D0
:100660008F939F93AF93BF938091EF019091F0018F
:10067000A091F101B091F2013091EE0123E0230F3E
:100680002D3758F50196A11DB11D2093EE018093E1
:10069000EF019093F001A093F101B093F2018091EA
:1006A000F3019091F401A091F501B091F60101964A
:1006B000A11DB11D8093F3019093F401A093F50166
:1006C000B093F601BF91AF919F918F913F912F9180
:1006D0000F900FBE0F901F90189526E8230F0296DB
:1006E000A11DB11DD2CF1F920F920FB60F921124F0
:1006F0002F933F934F935F936F937F938F939F932A
:10070000AF93BF93EF93FF9387EF91E00E94730144
:10071000FF91EF91BF91AF919F918F917F916F91D9
:100720005F914F913F912F910F900FBE0F901F90AF
:1007300018951F920F920FB60F9211242F938F933B
:100740009F93EF93FF93E0910702F091080280815D
:10075000E0910D02F0910E0282FD1BC0908180910C
:1007600010028F5F8F7320911102821741F0E09188
:100770001002F0E0E950FE4F958F80931002FF9138
:10078000EF919F918F912F910F900FBE0F901F901F
:1007900018958081F4CF1F920F920FB60F921124FB
:1007A0002F933F934F935F936F937F938F939F9379
:1007B000AF93BF93EF93FF938091B900887F80360A
:1007C00009F44AC0F0F5883209F4A7C018F5803161
:1007D00009F49BC0B8F4882309F4F9C0883009F4FF
:1007E00094C0FF91EF91BF91AF919F918F917F91B5
:1007F0006F915F914F913F912F910F900FBE0F908E
:100800001F901895883109F488C0803251F7809381
:10081000C20114C0803409F49DC040F48033B9F3A0
:100820008833F9F68093C20185ECB0C0803509F4B5
:1008300085C0883509F496C0883499F60E94F10283
:10084000D0CF883909F48CC038F5883729F050F4B6
:10085000883611F0803729F683E08093C401109226
:10086000970157C0883809F47BC0803919F0803867
:1008700009F0B7CF80919701803208F071C0E09104
:10088000970181E08E0F809397018091BB00F0E08B
:10089000E958FE4F80833DC0803B39F0E0F4803A58
:1008A00009F479C0883A09F09CCF84E08093C401B0
:1008B0001092760110927501E0919A01F0919B01DE
:1008C00009958091750181110FC081E080937501B8
:1008D0001092550109C0803C09F4A6CF883C09F468
:1008E000A3CF883B09F07DCFE091760181E08E0FA8
:1008F00080937601F0E0EB5AFE4F80818093BB003D
:10090000909176018091750129C080919F0180931B
:10091000BB0085EC8093BC0064CF9091C1018091B5
:10092000C001981758F5E091C10181E08E0F8093C6
:10093000C101F0E0E056FE4F8081E9CFE091C101B6
:1009400081E08E0F8093C1018091BB00F0E0E05602
:10095000FE4F80839091C1018091C0019817C8F229
:1009600085E8D8CFE091C10181E08E0F8093C1016D
:100970008091BB00F0E0E056FE4F80838091C30180
:1009800081115CCF81E080939E0184EA8093BC005A
:100990001092C40126CF85EC8093BC001092C40154
:1009A00080919701803230F4E0919701F0E0E958AE
:1009B000FE4F10826091970170E0E0919801F091F4
:1009C000990187E791E00995109297010ACF10925B
:1009D000C20134CFE7EFF1E01382128288EE93E098
:1009E000A0E0B0E084839583A683B78324E031E060
:1009F0003183208325EC30E03587248724EC30E0F8
:100A00003787268720EC30E0318B208B21EC30E0DB
:100A1000338B228B22EC30E0358B248B26EC30E0BC
:100A2000378B268B118E128E138E148EE4E9F2E032
:100A30001382128284839583A683B78386E191E033
:100A4000918380830895789484B5826084BD84B551
:100A5000816084BD85B5826085BD85B5816085BDB9
:100A600080916E00816080936E0010928100809171
:100A700081008260809381008091810081608093F9
:100A80008100809180008160809380008091B1001E
:100A900084608093B1008091B00081608093B00049
:100AA00080917A00846080937A0080917A008260DD
:100AB00080937A0080917A00816080937A0080919F
:100AC0007A00806880937A001092C10010929D0194
:100AD00010929C010E94290283EF90E090939B0169
:100AE00080939A0184EF90E090939901809398010C
:100AF000E0910702F091080282E08083E091030216
:100B0000F09104021082E0910502F09106028FEC50
:100B1000808310920F02E0910B02F0910C0286E0AC
:100B20008083E0910902F0910A02808180618083D4
:100B3000E0910902F0910A02808188608083E0914F
:100B40000902F0910A02808180688083E0910902A5
:100B5000F0910A0280818F7D808311E00AE095EE9A
:100B6000792E25EC622EC0E0D0E032E0532E1093B7
:100B7000CA010093EC011092CB011092ED0161E0EB
:100B800084E992E00E94BF026FEF84E992E00E9444
:100B9000BF02F090ED0120E22F1508F48EC00E94F4
:100BA000CE004B015C018091C401811161C0509263
:100BB000C4011093C3018FEF8093C2011092C10151
:100BC000F092C001ACECB1E0E0EAF1E080E0F812B4
:100BD000BAC010929F0180919F01846180939F0110
:100BE00080919E01813009F0B2C010929E010E9456
:100BF000CE006B017C0180919F018093BB008091AE
:100C0000C6019091C701A091C801B091C901892B7B
:100C10008A2B8B2B99F00E94CE008090C601909079
:100C2000C701A090C801B090C9016C197D098E0957
:100C30009F0986169706A806B906D8F18091BC00D0
:100C400083FDD9CF6092BC000E94CE006B017C0175
:100C50008091C401823009F47DC08091C2018F3F30
:100C600061F18091C201803241F18091C20125C0C1
:100C70008091C6019091C701A091C801B091C901AE
:100C8000892B8A2B8B2B09F48ECF0E94CE002091CA
:100C9000C6013091C7014091C8015091C90168193E
:100CA00079098A099B09261737074807590708F069
:100CB0007ACF8091C5010E9447021092CB01109219
:100CC000ED011092CA014BE050E064E271E087EF61
:100CD00091E00E94F50042E050E060E371E087EFB0
:100CE00091E00E94F5000E94CE006B017C0184EF30
:100CF000882E99249394A12CB12C0E94CE006C19BB
:100D00007D098E099F09683E734081059105A8F30E
:100D100081E0881A9108A108B10828EEC20E23E0EC
:100D2000D21EE11CF11C81149104A104B10429F725
:100D3000209709F41CCF0E945F01882309F417CF84
:100D40000E94000014CF9D9191938F5F40CF7092CD
:100D5000BC007ACF8091C6019091C701A091C801D3
:100D6000B091C901892B8A2B8B2B09F471CF0E947A
:100D7000CE008090C6019090C701A090C801B090AD
:100D8000C9016C197D098E099F0986169706A80668
:100D9000B90608F05DCF8DCFEE0FFF1F0590F491DF
:080DA000E02D0994F894FFCF47
:100DA800000000009501F5002201E2015301310124
:100DB800450100000000BF029202EE0268028B02A9
:100DC8007802690253656E7420746F204E5854007F
:040DD8000D0A000000
:00000001FF
